{
  "_format": "hh-sol-artifact-1",
  "contractName": "MyEpicNFT",
  "sourceName": "contracts/MyEpicNFT.sol",
  "abi": [
    {
      "inputs": [],
      "stateMutability": "nonpayable",
      "type": "constructor"
    },
    {
      "anonymous": false,
      "inputs": [
        {
          "indexed": true,
          "internalType": "address",
          "name": "owner",
          "type": "address"
        },
        {
          "indexed": true,
          "internalType": "address",
          "name": "approved",
          "type": "address"
        },
        {
          "indexed": true,
          "internalType": "uint256",
          "name": "tokenId",
          "type": "uint256"
        }
      ],
      "name": "Approval",
      "type": "event"
    },
    {
      "anonymous": false,
      "inputs": [
        {
          "indexed": true,
          "internalType": "address",
          "name": "owner",
          "type": "address"
        },
        {
          "indexed": true,
          "internalType": "address",
          "name": "operator",
          "type": "address"
        },
        {
          "indexed": false,
          "internalType": "bool",
          "name": "approved",
          "type": "bool"
        }
      ],
      "name": "ApprovalForAll",
      "type": "event"
    },
    {
      "anonymous": false,
      "inputs": [
        {
          "indexed": false,
          "internalType": "address",
          "name": "sender",
          "type": "address"
        },
        {
          "indexed": false,
          "internalType": "uint256",
          "name": "tokenId",
          "type": "uint256"
        }
      ],
      "name": "NewEpicNFTMinted",
      "type": "event"
    },
    {
      "anonymous": false,
      "inputs": [
        {
          "indexed": true,
          "internalType": "address",
          "name": "from",
          "type": "address"
        },
        {
          "indexed": true,
          "internalType": "address",
          "name": "to",
          "type": "address"
        },
        {
          "indexed": true,
          "internalType": "uint256",
          "name": "tokenId",
          "type": "uint256"
        }
      ],
      "name": "Transfer",
      "type": "event"
    },
    {
      "inputs": [
        {
          "internalType": "address",
          "name": "to",
          "type": "address"
        },
        {
          "internalType": "uint256",
          "name": "tokenId",
          "type": "uint256"
        }
      ],
      "name": "approve",
      "outputs": [],
      "stateMutability": "nonpayable",
      "type": "function"
    },
    {
      "inputs": [
        {
          "internalType": "address",
          "name": "owner",
          "type": "address"
        }
      ],
      "name": "balanceOf",
      "outputs": [
        {
          "internalType": "uint256",
          "name": "",
          "type": "uint256"
        }
      ],
      "stateMutability": "view",
      "type": "function"
    },
    {
      "inputs": [
        {
          "internalType": "uint256",
          "name": "tokenId",
          "type": "uint256"
        }
      ],
      "name": "getApproved",
      "outputs": [
        {
          "internalType": "address",
          "name": "",
          "type": "address"
        }
      ],
      "stateMutability": "view",
      "type": "function"
    },
    {
      "inputs": [],
      "name": "getTotalNFTsMinted",
      "outputs": [
        {
          "internalType": "uint256",
          "name": "",
          "type": "uint256"
        }
      ],
      "stateMutability": "view",
      "type": "function"
    },
    {
      "inputs": [
        {
          "internalType": "address",
          "name": "owner",
          "type": "address"
        },
        {
          "internalType": "address",
          "name": "operator",
          "type": "address"
        }
      ],
      "name": "isApprovedForAll",
      "outputs": [
        {
          "internalType": "bool",
          "name": "",
          "type": "bool"
        }
      ],
      "stateMutability": "view",
      "type": "function"
    },
    {
      "inputs": [],
      "name": "makeAnEpicNFT",
      "outputs": [],
      "stateMutability": "nonpayable",
      "type": "function"
    },
    {
      "inputs": [],
      "name": "name",
      "outputs": [
        {
          "internalType": "string",
          "name": "",
          "type": "string"
        }
      ],
      "stateMutability": "view",
      "type": "function"
    },
    {
      "inputs": [
        {
          "internalType": "uint256",
          "name": "tokenId",
          "type": "uint256"
        }
      ],
      "name": "ownerOf",
      "outputs": [
        {
          "internalType": "address",
          "name": "",
          "type": "address"
        }
      ],
      "stateMutability": "view",
      "type": "function"
    },
    {
      "inputs": [
        {
          "internalType": "uint256",
          "name": "tokenId",
          "type": "uint256"
        },
        {
          "internalType": "string",
          "name": "str",
          "type": "string"
        }
      ],
      "name": "pickRandom",
      "outputs": [
        {
          "internalType": "string",
          "name": "",
          "type": "string"
        }
      ],
      "stateMutability": "view",
      "type": "function"
    },
    {
      "inputs": [
        {
          "internalType": "address",
          "name": "from",
          "type": "address"
        },
        {
          "internalType": "address",
          "name": "to",
          "type": "address"
        },
        {
          "internalType": "uint256",
          "name": "tokenId",
          "type": "uint256"
        }
      ],
      "name": "safeTransferFrom",
      "outputs": [],
      "stateMutability": "nonpayable",
      "type": "function"
    },
    {
      "inputs": [
        {
          "internalType": "address",
          "name": "from",
          "type": "address"
        },
        {
          "internalType": "address",
          "name": "to",
          "type": "address"
        },
        {
          "internalType": "uint256",
          "name": "tokenId",
          "type": "uint256"
        },
        {
          "internalType": "bytes",
          "name": "_data",
          "type": "bytes"
        }
      ],
      "name": "safeTransferFrom",
      "outputs": [],
      "stateMutability": "nonpayable",
      "type": "function"
    },
    {
      "inputs": [
        {
          "internalType": "address",
          "name": "operator",
          "type": "address"
        },
        {
          "internalType": "bool",
          "name": "approved",
          "type": "bool"
        }
      ],
      "name": "setApprovalForAll",
      "outputs": [],
      "stateMutability": "nonpayable",
      "type": "function"
    },
    {
      "inputs": [
        {
          "internalType": "bytes4",
          "name": "interfaceId",
          "type": "bytes4"
        }
      ],
      "name": "supportsInterface",
      "outputs": [
        {
          "internalType": "bool",
          "name": "",
          "type": "bool"
        }
      ],
      "stateMutability": "view",
      "type": "function"
    },
    {
      "inputs": [],
      "name": "symbol",
      "outputs": [
        {
          "internalType": "string",
          "name": "",
          "type": "string"
        }
      ],
      "stateMutability": "view",
      "type": "function"
    },
    {
      "inputs": [
        {
          "internalType": "uint256",
          "name": "tokenId",
          "type": "uint256"
        }
      ],
      "name": "tokenURI",
      "outputs": [
        {
          "internalType": "string",
          "name": "",
          "type": "string"
        }
      ],
      "stateMutability": "view",
      "type": "function"
    },
    {
      "inputs": [
        {
          "internalType": "address",
          "name": "from",
          "type": "address"
        },
        {
          "internalType": "address",
          "name": "to",
          "type": "address"
        },
        {
          "internalType": "uint256",
          "name": "tokenId",
          "type": "uint256"
        }
      ],
      "name": "transferFrom",
      "outputs": [],
      "stateMutability": "nonpayable",
      "type": "function"
    }
  ],
  "bytecode": "0x608060405260405180610280016040528061025a815260200162003fca61025a9139600890805190602001906200003892919062000236565b5060405180608001604052806044815260200162003f8660449139600990805190602001906200006a92919062000236565b503480156200007857600080fd5b506040518060400160405280600b81526020017f547269616e676c654e46540000000000000000000000000000000000000000008152506040518060400160405280600881526020017f545249414e474c450000000000000000000000000000000000000000000000008152508160009080519060200190620000fd92919062000236565b5080600190805190602001906200011692919062000236565b505050620001646040518060400160405280601e81526020017f54686973206973206d79204e465420636f6e74726163742e20576f61682100008152506200016a60201b620010df1760201c565b62000413565b6200020a8160405160240162000181919062000327565b6040516020818303038152906040527f41304fac000000000000000000000000000000000000000000000000000000007bffffffffffffffffffffffffffffffffffffffffffffffffffffffff19166020820180517bffffffffffffffffffffffffffffffffffffffffffffffffffffffff83818316178352505050506200020d60201b60201c565b50565b60008151905060006a636f6e736f6c652e6c6f679050602083016000808483855afa5050505050565b82805462000244906200039d565b90600052602060002090601f016020900481019282620002685760008555620002b4565b82601f106200028357805160ff1916838001178555620002b4565b82800160010185558215620002b4579182015b82811115620002b357825182559160200191906001019062000296565b5b509050620002c39190620002c7565b5090565b5b80821115620002e2576000816000905550600101620002c8565b5090565b6000620002f3826200034b565b620002ff818562000356565b93506200031181856020860162000367565b6200031c8162000402565b840191505092915050565b60006020820190508181036000830152620003438184620002e6565b905092915050565b600081519050919050565b600082825260208201905092915050565b60005b83811015620003875780820151818401526020810190506200036a565b8381111562000397576000848401525b50505050565b60006002820490506001821680620003b657607f821691505b60208210811415620003cd57620003cc620003d3565b5b50919050565b7f4e487b7100000000000000000000000000000000000000000000000000000000600052602260045260246000fd5b6000601f19601f8301169050919050565b613b6380620004236000396000f3fe608060405234801561001057600080fd5b50600436106101005760003560e01c806370a0823111610097578063b88d4fde11610066578063b88d4fde146102bf578063c87b56dd146102db578063de9d132f1461030b578063e985e9c51461031557610100565b806370a082311461023757806395d89b4114610267578063a22cb46514610285578063b4c3b8be146102a157610100565b806311f25689116100d357806311f256891461019f57806323b872dd146101cf57806342842e0e146101eb5780636352211e1461020757610100565b806301ffc9a71461010557806306fdde0314610135578063081812fc14610153578063095ea7b314610183575b600080fd5b61011f600480360381019061011a91906125af565b610345565b60405161012c9190613309565b60405180910390f35b61013d610427565b60405161014a9190613324565b60405180910390f35b61016d60048036038101906101689190612601565b6104b9565b60405161017a9190613279565b60405180910390f35b61019d60048036038101906101989190612573565b61053e565b005b6101b960048036038101906101b4919061262a565b610656565b6040516101c69190613324565b60405180910390f35b6101e960048036038101906101e4919061246d565b6106e8565b005b6102056004803603810190610200919061246d565b610748565b005b610221600480360381019061021c9190612601565b610768565b60405161022e9190613279565b60405180910390f35b610251600480360381019061024c9190612408565b61081a565b60405161025e91906135a4565b60405180910390f35b61026f6108d2565b60405161027c9190613324565b60405180910390f35b61029f600480360381019061029a9190612537565b610964565b005b6102a9610ae5565b6040516102b691906135a4565b60405180910390f35b6102d960048036038101906102d491906124bc565b610af6565b005b6102f560048036038101906102f09190612601565b610b58565b6040516103029190613324565b60405180910390f35b610313610caa565b005b61032f600480360381019061032a9190612431565b61104b565b60405161033c9190613309565b60405180910390f35b60007f80ac58cd000000000000000000000000000000000000000000000000000000007bffffffffffffffffffffffffffffffffffffffffffffffffffffffff1916827bffffffffffffffffffffffffffffffffffffffffffffffffffffffff1916148061041057507f5b5e139f000000000000000000000000000000000000000000000000000000007bffffffffffffffffffffffffffffffffffffffffffffffffffffffff1916827bffffffffffffffffffffffffffffffffffffffffffffffffffffffff1916145b80610420575061041f82611178565b5b9050919050565b606060008054610436906138c2565b80601f0160208091040260200160405190810160405280929190818152602001828054610462906138c2565b80156104af5780601f10610484576101008083540402835291602001916104af565b820191906000526020600020905b81548152906001019060200180831161049257829003601f168201915b5050505050905090565b60006104c4826111e2565b610503576040517f08c379a00000000000000000000000000000000000000000000000000000000081526004016104fa906134e4565b60405180910390fd5b6004600083815260200190815260200160002060009054906101000a900473ffffffffffffffffffffffffffffffffffffffff169050919050565b600061054982610768565b90508073ffffffffffffffffffffffffffffffffffffffff168373ffffffffffffffffffffffffffffffffffffffff1614156105ba576040517f08c379a00000000000000000000000000000000000000000000000000000000081526004016105b190613564565b60405180910390fd5b8073ffffffffffffffffffffffffffffffffffffffff166105d961124e565b73ffffffffffffffffffffffffffffffffffffffff16148061060857506106078161060261124e565b61104b565b5b610647576040517f08c379a000000000000000000000000000000000000000000000000000000000815260040161063e90613424565b60405180910390fd5b6106518383611256565b505050565b606060006106ad836106678661130f565b3360405160200161067891906130b5565b6040516020818303038152906040526040516020016106999392919061310b565b6040516020818303038152906040526114bc565b9050606460016004836106c09190613961565b6106ca91906136b3565b6106d49190613771565b90506106df816114ef565b91505092915050565b6106f96106f361124e565b826116c4565b610738576040517f08c379a000000000000000000000000000000000000000000000000000000000815260040161072f90613584565b60405180910390fd5b6107438383836117a2565b505050565b61076383838360405180602001604052806000815250610af6565b505050565b6000806002600084815260200190815260200160002060009054906101000a900473ffffffffffffffffffffffffffffffffffffffff169050600073ffffffffffffffffffffffffffffffffffffffff168173ffffffffffffffffffffffffffffffffffffffff161415610811576040517f08c379a000000000000000000000000000000000000000000000000000000000815260040161080890613464565b60405180910390fd5b80915050919050565b60008073ffffffffffffffffffffffffffffffffffffffff168273ffffffffffffffffffffffffffffffffffffffff16141561088b576040517f08c379a000000000000000000000000000000000000000000000000000000000815260040161088290613444565b60405180910390fd5b600360008373ffffffffffffffffffffffffffffffffffffffff1673ffffffffffffffffffffffffffffffffffffffff168152602001908152602001600020549050919050565b6060600180546108e1906138c2565b80601f016020809104026020016040519081016040528092919081815260200182805461090d906138c2565b801561095a5780601f1061092f5761010080835404028352916020019161095a565b820191906000526020600020905b81548152906001019060200180831161093d57829003601f168201915b5050505050905090565b61096c61124e565b73ffffffffffffffffffffffffffffffffffffffff168273ffffffffffffffffffffffffffffffffffffffff1614156109da576040517f08c379a00000000000000000000000000000000000000000000000000000000081526004016109d1906133e4565b60405180910390fd5b80600560006109e761124e565b73ffffffffffffffffffffffffffffffffffffffff1673ffffffffffffffffffffffffffffffffffffffff16815260200190815260200160002060008473ffffffffffffffffffffffffffffffffffffffff1673ffffffffffffffffffffffffffffffffffffffff16815260200190815260200160002060006101000a81548160ff0219169083151502179055508173ffffffffffffffffffffffffffffffffffffffff16610a9461124e565b73ffffffffffffffffffffffffffffffffffffffff167f17307eab39ab6107e8899845ad3d59bd9653f200f220920489ca2b5937696c3183604051610ad99190613309565b60405180910390a35050565b6000610af160076119fe565b905090565b610b07610b0161124e565b836116c4565b610b46576040517f08c379a0000000000000000000000000000000000000000000000000000000008152600401610b3d90613584565b60405180910390fd5b610b5284848484611a0c565b50505050565b6060610b63826111e2565b610ba2576040517f08c379a0000000000000000000000000000000000000000000000000000000008152600401610b99906134c4565b60405180910390fd5b6000600660008481526020019081526020016000208054610bc2906138c2565b80601f0160208091040260200160405190810160405280929190818152602001828054610bee906138c2565b8015610c3b5780601f10610c1057610100808354040283529160200191610c3b565b820191906000526020600020905b815481529060010190602001808311610c1e57829003601f168201915b505050505090506000610c4c611a68565b9050600081511415610c62578192505050610ca5565b600082511115610c97578082604051602001610c7f9291906130e7565b60405160208183030381529060405292505050610ca5565b610ca084611a7f565b925050505b919050565b6000610cb660076119fe565b905060328110610cfb576040517f08c379a0000000000000000000000000000000000000000000000000000000008152600401610cf290613504565b60405180910390fd5b6000610d3c826040518060400160405280600781526020017f46495253545f5800000000000000000000000000000000000000000000000000815250610656565b90506000610d7f836040518060400160405280600881526020017f5345434f4e445f58000000000000000000000000000000000000000000000000815250610656565b90506000610dc2846040518060400160405280600781526020017f54484952445f5800000000000000000000000000000000000000000000000000815250610656565b90506000610e05856040518060400160405280600781526020017f46495253545f5900000000000000000000000000000000000000000000000000815250610656565b90506000610e48866040518060400160405280600881526020017f5345434f4e445f59000000000000000000000000000000000000000000000000815250610656565b90506000610e8b876040518060400160405280600781526020017f54484952445f5900000000000000000000000000000000000000000000000000815250610656565b90506000868487858886604051602001610eaa9695949392919061313c565b604051602081830303815290604052905060006008826009604051602001610ed4939291906131cb565b60405160208183030381529060405290506000610f1983610ef484611b26565b604051602001610f05929190613207565b604051602081830303815290604052611b26565b9050600081604051602001610f2e9190613257565b6040516020818303038152906040529050610f7d6040518060400160405280601581526020017f0a2d2d2d2d2d2d2d2d2d2d2d2d2d2d2d2d2d2d2d2d00000000000000000000008152506110df565b610f86816110df565b610fc46040518060400160405280601581526020017f2d2d2d2d2d2d2d2d2d2d2d2d2d2d2d2d2d2d2d2d0a00000000000000000000008152506110df565b610fce338c611ce4565b610fd88b82611d02565b610fe26007611d76565b611005604051806060016040528060258152602001613ac9602591398c33611d8c565b7febb98688741ffa4c7589bf325de30cf7becb63de567842e1ccdb6cb949fdc82c338c6040516110369291906132e0565b60405180910390a15050505050505050505050565b6000600560008473ffffffffffffffffffffffffffffffffffffffff1673ffffffffffffffffffffffffffffffffffffffff16815260200190815260200160002060008373ffffffffffffffffffffffffffffffffffffffff1673ffffffffffffffffffffffffffffffffffffffff16815260200190815260200160002060009054906101000a900460ff16905092915050565b611175816040516024016110f39190613324565b6040516020818303038152906040527f41304fac000000000000000000000000000000000000000000000000000000007bffffffffffffffffffffffffffffffffffffffffffffffffffffffff19166020820180517bffffffffffffffffffffffffffffffffffffffffffffffffffffffff8381831617835250505050611e2b565b50565b60007f01ffc9a7000000000000000000000000000000000000000000000000000000007bffffffffffffffffffffffffffffffffffffffffffffffffffffffff1916827bffffffffffffffffffffffffffffffffffffffffffffffffffffffff1916149050919050565b60008073ffffffffffffffffffffffffffffffffffffffff166002600084815260200190815260200160002060009054906101000a900473ffffffffffffffffffffffffffffffffffffffff1673ffffffffffffffffffffffffffffffffffffffff1614159050919050565b600033905090565b816004600083815260200190815260200160002060006101000a81548173ffffffffffffffffffffffffffffffffffffffff021916908373ffffffffffffffffffffffffffffffffffffffff160217905550808273ffffffffffffffffffffffffffffffffffffffff166112c983610768565b73ffffffffffffffffffffffffffffffffffffffff167f8c5be1e5ebec7d5bd14f71427d1e84f3dd0314c0f7b2291e5b200ac8c7c3b92560405160405180910390a45050565b60606000821415611357576040518060400160405280600181526020017f300000000000000000000000000000000000000000000000000000000000000081525090506114b7565b600082905060005b60008214611389578080611372906138f4565b915050600a826113829190613740565b915061135f565b60008167ffffffffffffffff8111156113cb577f4e487b7100000000000000000000000000000000000000000000000000000000600052604160045260246000fd5b6040519080825280601f01601f1916602001820160405280156113fd5781602001600182028036833780820191505090505b5090505b600085146114b05760018261141691906137cb565b9150600a856114259190613961565b603061143191906136b3565b60f81b81838151811061146d577f4e487b7100000000000000000000000000000000000000000000000000000000600052603260045260246000fd5b60200101907effffffffffffffffffffffffffffffffffffffffffffffffffffffffffffff1916908160001a905350600a856114a99190613740565b9450611401565b8093505050505b919050565b6000816040516020016114cf91906130d0565b6040516020818303038152906040528051906020012060001c9050919050565b60606000821415611537576040518060400160405280600181526020017f300000000000000000000000000000000000000000000000000000000000000081525090506116bf565b600082905060005b60008214611569578080611552906138f4565b915050600a826115629190613740565b915061153f565b60008167ffffffffffffffff8111156115ab577f4e487b7100000000000000000000000000000000000000000000000000000000600052604160045260246000fd5b6040519080825280601f01601f1916602001820160405280156115dd5781602001600182028036833780820191505090505b50905060008290505b600086146116b7576001816115fb91906137cb565b90506000600a808861160d9190613740565b6116179190613771565b8761162291906137cb565b603061162e9190613709565b905060008160f81b905080848481518110611672577f4e487b7100000000000000000000000000000000000000000000000000000000600052603260045260246000fd5b60200101907effffffffffffffffffffffffffffffffffffffffffffffffffffffffffffff1916908160001a905350600a886116ae9190613740565b975050506115e6565b819450505050505b919050565b60006116cf826111e2565b61170e576040517f08c379a000000000000000000000000000000000000000000000000000000000815260040161170590613404565b60405180910390fd5b600061171983610768565b90508073ffffffffffffffffffffffffffffffffffffffff168473ffffffffffffffffffffffffffffffffffffffff16148061178857508373ffffffffffffffffffffffffffffffffffffffff16611770846104b9565b73ffffffffffffffffffffffffffffffffffffffff16145b806117995750611798818561104b565b5b91505092915050565b8273ffffffffffffffffffffffffffffffffffffffff166117c282610768565b73ffffffffffffffffffffffffffffffffffffffff1614611818576040517f08c379a000000000000000000000000000000000000000000000000000000000815260040161180f90613524565b60405180910390fd5b600073ffffffffffffffffffffffffffffffffffffffff168273ffffffffffffffffffffffffffffffffffffffff161415611888576040517f08c379a000000000000000000000000000000000000000000000000000000000815260040161187f906133c4565b60405180910390fd5b611893838383611e54565b61189e600082611256565b6001600360008573ffffffffffffffffffffffffffffffffffffffff1673ffffffffffffffffffffffffffffffffffffffff16815260200190815260200160002060008282546118ee91906137cb565b925050819055506001600360008473ffffffffffffffffffffffffffffffffffffffff1673ffffffffffffffffffffffffffffffffffffffff168152602001908152602001600020600082825461194591906136b3565b92505081905550816002600083815260200190815260200160002060006101000a81548173ffffffffffffffffffffffffffffffffffffffff021916908373ffffffffffffffffffffffffffffffffffffffff160217905550808273ffffffffffffffffffffffffffffffffffffffff168473ffffffffffffffffffffffffffffffffffffffff167fddf252ad1be2c89b69c2b068fc378daa952ba7f163c4a11628f55a4df523b3ef60405160405180910390a4505050565b600081600001549050919050565b611a178484846117a2565b611a2384848484611e59565b611a62576040517f08c379a0000000000000000000000000000000000000000000000000000000008152600401611a5990613384565b60405180910390fd5b50505050565b606060405180602001604052806000815250905090565b6060611a8a826111e2565b611ac9576040517f08c379a0000000000000000000000000000000000000000000000000000000008152600401611ac090613544565b60405180910390fd5b6000611ad3611a68565b90506000815111611af35760405180602001604052806000815250611b1e565b80611afd8461130f565b604051602001611b0e9291906130e7565b6040516020818303038152906040525b915050919050565b60606000825190506000811415611b4f5760405180602001604052806000815250915050611cdf565b60006003600283611b6091906136b3565b611b6a9190613740565b6004611b769190613771565b90506000602082611b8791906136b3565b67ffffffffffffffff811115611bc6577f4e487b7100000000000000000000000000000000000000000000000000000000600052604160045260246000fd5b6040519080825280601f01601f191660200182016040528015611bf85781602001600182028036833780820191505090505b5090506000604051806060016040528060408152602001613aee604091399050600181016020830160005b86811015611c9c5760038101905062ffffff818a015116603f8160121c168401518060081b905060ff603f83600c1c1686015116810190508060081b905060ff603f8360061c1686015116810190508060081b905060ff603f831686015116810190508060e01b90508084526004840193505050611c23565b506003860660018114611cb65760028114611cc657611cd1565b613d3d60f01b6002830352611cd1565b603d60f81b60018303525b508484525050819450505050505b919050565b611cfe828260405180602001604052806000815250611ff0565b5050565b611d0b826111e2565b611d4a576040517f08c379a0000000000000000000000000000000000000000000000000000000008152600401611d4190613484565b60405180910390fd5b80600660008481526020019081526020016000209080519060200190611d7192919061222c565b505050565b6001816000016000828254019250508190555050565b611e26838383604051602401611da493929190613346565b6040516020818303038152906040527fe3849f79000000000000000000000000000000000000000000000000000000007bffffffffffffffffffffffffffffffffffffffffffffffffffffffff19166020820180517bffffffffffffffffffffffffffffffffffffffffffffffffffffffff8381831617835250505050611e2b565b505050565b60008151905060006a636f6e736f6c652e6c6f679050602083016000808483855afa5050505050565b505050565b6000611e7a8473ffffffffffffffffffffffffffffffffffffffff1661204b565b15611fe3578373ffffffffffffffffffffffffffffffffffffffff1663150b7a02611ea361124e565b8786866040518563ffffffff1660e01b8152600401611ec59493929190613294565b602060405180830381600087803b158015611edf57600080fd5b505af1925050508015611f1057506040513d601f19601f82011682018060405250810190611f0d91906125d8565b60015b611f93573d8060008114611f40576040519150601f19603f3d011682016040523d82523d6000602084013e611f45565b606091505b50600081511415611f8b576040517f08c379a0000000000000000000000000000000000000000000000000000000008152600401611f8290613384565b60405180910390fd5b805181602001fd5b63150b7a0260e01b7bffffffffffffffffffffffffffffffffffffffffffffffffffffffff1916817bffffffffffffffffffffffffffffffffffffffffffffffffffffffff191614915050611fe8565b600190505b949350505050565b611ffa838361205e565b6120076000848484611e59565b612046576040517f08c379a000000000000000000000000000000000000000000000000000000000815260040161203d90613384565b60405180910390fd5b505050565b600080823b905060008111915050919050565b600073ffffffffffffffffffffffffffffffffffffffff168273ffffffffffffffffffffffffffffffffffffffff1614156120ce576040517f08c379a00000000000000000000000000000000000000000000000000000000081526004016120c5906134a4565b60405180910390fd5b6120d7816111e2565b15612117576040517f08c379a000000000000000000000000000000000000000000000000000000000815260040161210e906133a4565b60405180910390fd5b61212360008383611e54565b6001600360008473ffffffffffffffffffffffffffffffffffffffff1673ffffffffffffffffffffffffffffffffffffffff168152602001908152602001600020600082825461217391906136b3565b92505081905550816002600083815260200190815260200160002060006101000a81548173ffffffffffffffffffffffffffffffffffffffff021916908373ffffffffffffffffffffffffffffffffffffffff160217905550808273ffffffffffffffffffffffffffffffffffffffff16600073ffffffffffffffffffffffffffffffffffffffff167fddf252ad1be2c89b69c2b068fc378daa952ba7f163c4a11628f55a4df523b3ef60405160405180910390a45050565b828054612238906138c2565b90600052602060002090601f01602090048101928261225a57600085556122a1565b82601f1061227357805160ff19168380011785556122a1565b828001600101855582156122a1579182015b828111156122a0578251825591602001919060010190612285565b5b5090506122ae91906122b2565b5090565b5b808211156122cb5760008160009055506001016122b3565b5090565b60006122e26122dd846135f0565b6135bf565b9050828152602081018484840111156122fa57600080fd5b612305848285613880565b509392505050565b600061232061231b84613620565b6135bf565b90508281526020810184848401111561233857600080fd5b612343848285613880565b509392505050565b60008135905061235a81613a6c565b92915050565b60008135905061236f81613a83565b92915050565b60008135905061238481613a9a565b92915050565b60008151905061239981613a9a565b92915050565b600082601f8301126123b057600080fd5b81356123c08482602086016122cf565b91505092915050565b600082601f8301126123da57600080fd5b81356123ea84826020860161230d565b91505092915050565b60008135905061240281613ab1565b92915050565b60006020828403121561241a57600080fd5b60006124288482850161234b565b91505092915050565b6000806040838503121561244457600080fd5b60006124528582860161234b565b92505060206124638582860161234b565b9150509250929050565b60008060006060848603121561248257600080fd5b60006124908682870161234b565b93505060206124a18682870161234b565b92505060406124b2868287016123f3565b9150509250925092565b600080600080608085870312156124d257600080fd5b60006124e08782880161234b565b94505060206124f18782880161234b565b9350506040612502878288016123f3565b925050606085013567ffffffffffffffff81111561251f57600080fd5b61252b8782880161239f565b91505092959194509250565b6000806040838503121561254a57600080fd5b60006125588582860161234b565b925050602061256985828601612360565b9150509250929050565b6000806040838503121561258657600080fd5b60006125948582860161234b565b92505060206125a5858286016123f3565b9150509250929050565b6000602082840312156125c157600080fd5b60006125cf84828501612375565b91505092915050565b6000602082840312156125ea57600080fd5b60006125f88482850161238a565b91505092915050565b60006020828403121561261357600080fd5b6000612621848285016123f3565b91505092915050565b6000806040838503121561263d57600080fd5b600061264b858286016123f3565b925050602083013567ffffffffffffffff81111561266857600080fd5b612674858286016123c9565b9150509250929050565b612687816137ff565b82525050565b61269e612699826137ff565b61393d565b82525050565b6126ad81613811565b82525050565b60006126be82613665565b6126c8818561367b565b93506126d881856020860161388f565b6126e181613a4e565b840191505092915050565b60006126f782613665565b612701818561368c565b935061271181856020860161388f565b80840191505092915050565b600061272882613670565b6127328185613697565b935061274281856020860161388f565b61274b81613a4e565b840191505092915050565b600061276182613670565b61276b81856136a8565b935061277b81856020860161388f565b80840191505092915050565b60008154612794816138c2565b61279e81866136a8565b945060018216600081146127b957600181146127ca576127fd565b60ff198316865281860193506127fd565b6127d385613650565b60005b838110156127f5578154818901526001820191506020810190506127d6565b838801955050505b50505092915050565b6000612813603283613697565b91507f4552433732313a207472616e7366657220746f206e6f6e20455243373231526560008301527f63656976657220696d706c656d656e74657200000000000000000000000000006020830152604082019050919050565b6000612879601c83613697565b91507f4552433732313a20746f6b656e20616c7265616479206d696e746564000000006000830152602082019050919050565b60006128b96001836136a8565b91507f2c000000000000000000000000000000000000000000000000000000000000006000830152600182019050919050565b60006128f9602483613697565b91507f4552433732313a207472616e7366657220746f20746865207a65726f2061646460008301527f72657373000000000000000000000000000000000000000000000000000000006020830152604082019050919050565b600061295f601983613697565b91507f4552433732313a20617070726f766520746f2063616c6c6572000000000000006000830152602082019050919050565b600061299f602c83613697565b91507f4552433732313a206f70657261746f7220717565727920666f72206e6f6e657860008301527f697374656e7420746f6b656e00000000000000000000000000000000000000006020830152604082019050919050565b6000612a056001836136a8565b91507f20000000000000000000000000000000000000000000000000000000000000006000830152600182019050919050565b6000612a45603883613697565b91507f4552433732313a20617070726f76652063616c6c6572206973206e6f74206f7760008301527f6e6572206e6f7220617070726f76656420666f7220616c6c00000000000000006020830152604082019050919050565b6000612aab602a83613697565b91507f4552433732313a2062616c616e636520717565727920666f7220746865207a6560008301527f726f2061646472657373000000000000000000000000000000000000000000006020830152604082019050919050565b6000612b11602983613697565b91507f4552433732313a206f776e657220717565727920666f72206e6f6e657869737460008301527f656e7420746f6b656e00000000000000000000000000000000000000000000006020830152604082019050919050565b6000612b77602e83613697565b91507f45524337323155524953746f726167653a2055524920736574206f66206e6f6e60008301527f6578697374656e7420746f6b656e0000000000000000000000000000000000006020830152604082019050919050565b6000612bdd6002836136a8565b91507f227d0000000000000000000000000000000000000000000000000000000000006000830152600282019050919050565b6000612c1d602083613697565b91507f4552433732313a206d696e7420746f20746865207a65726f20616464726573736000830152602082019050919050565b6000612c5d603183613697565b91507f45524337323155524953746f726167653a2055524920717565727920666f722060008301527f6e6f6e6578697374656e7420746f6b656e0000000000000000000000000000006020830152604082019050919050565b6000612cc3602c83613697565b91507f4552433732313a20617070726f76656420717565727920666f72206e6f6e657860008301527f697374656e7420746f6b656e00000000000000000000000000000000000000006020830152604082019050919050565b6000612d29600a836136a8565b91507f547269616e676c653a20000000000000000000000000000000000000000000006000830152600a82019050919050565b6000612d69601883613697565b91507f4e4654204c696d6974206f6620353020657863656564656400000000000000006000830152602082019050919050565b6000612da96065836136a8565b91507f222c20226465736372697074696f6e223a20224120686967686c79206163636c60008301527f61696d656420636f6c6c656374696f6e206f6620747269616e676c65732e222c60208301527f2022696d616765223a2022646174613a696d6167652f7376672b786d6c3b626160408301527f736536342c0000000000000000000000000000000000000000000000000000006060830152606582019050919050565b6000612e5b602983613697565b91507f4552433732313a207472616e73666572206f6620746f6b656e2074686174206960008301527f73206e6f74206f776e00000000000000000000000000000000000000000000006020830152604082019050919050565b6000612ec1602f83613697565b91507f4552433732314d657461646174613a2055524920717565727920666f72206e6f60008301527f6e6578697374656e7420746f6b656e00000000000000000000000000000000006020830152604082019050919050565b6000612f27600a836136a8565b91507f7b226e616d65223a2022000000000000000000000000000000000000000000006000830152600a82019050919050565b6000612f67602183613697565b91507f4552433732313a20617070726f76616c20746f2063757272656e74206f776e6560008301527f72000000000000000000000000000000000000000000000000000000000000006020830152604082019050919050565b6000612fcd601d836136a8565b91507f646174613a6170706c69636174696f6e2f6a736f6e3b6261736536342c0000006000830152601d82019050919050565b600061300d603183613697565b91507f4552433732313a207472616e736665722063616c6c6572206973206e6f74206f60008301527f776e6572206e6f7220617070726f7665640000000000000000000000000000006020830152604082019050919050565b60006130736006836136a8565b91507f3c2f7376673e00000000000000000000000000000000000000000000000000006000830152600682019050919050565b6130af81613869565b82525050565b60006130c1828461268d565b60148201915081905092915050565b60006130dc8284612756565b915081905092915050565b60006130f38285612756565b91506130ff8284612756565b91508190509392505050565b60006131178286612756565b91506131238285612756565b915061312f82846126ec565b9150819050949350505050565b60006131488289612756565b9150613153826128ac565b915061315f8288612756565b915061316a826129f8565b91506131768287612756565b9150613181826128ac565b915061318d8286612756565b9150613198826129f8565b91506131a48285612756565b91506131af826128ac565b91506131bb8284612756565b9150819050979650505050505050565b60006131d78286612787565b91506131e38285612756565b91506131ef8284612787565b91506131fa82613066565b9150819050949350505050565b600061321282612f1a565b915061321d82612d1c565b91506132298285612756565b915061323482612d9c565b91506132408284612756565b915061324b82612bd0565b91508190509392505050565b600061326282612fc0565b915061326e8284612756565b915081905092915050565b600060208201905061328e600083018461267e565b92915050565b60006080820190506132a9600083018761267e565b6132b6602083018661267e565b6132c360408301856130a6565b81810360608301526132d581846126b3565b905095945050505050565b60006040820190506132f5600083018561267e565b61330260208301846130a6565b9392505050565b600060208201905061331e60008301846126a4565b92915050565b6000602082019050818103600083015261333e818461271d565b905092915050565b60006060820190508181036000830152613360818661271d565b905061336f60208301856130a6565b61337c604083018461267e565b949350505050565b6000602082019050818103600083015261339d81612806565b9050919050565b600060208201905081810360008301526133bd8161286c565b9050919050565b600060208201905081810360008301526133dd816128ec565b9050919050565b600060208201905081810360008301526133fd81612952565b9050919050565b6000602082019050818103600083015261341d81612992565b9050919050565b6000602082019050818103600083015261343d81612a38565b9050919050565b6000602082019050818103600083015261345d81612a9e565b9050919050565b6000602082019050818103600083015261347d81612b04565b9050919050565b6000602082019050818103600083015261349d81612b6a565b9050919050565b600060208201905081810360008301526134bd81612c10565b9050919050565b600060208201905081810360008301526134dd81612c50565b9050919050565b600060208201905081810360008301526134fd81612cb6565b9050919050565b6000602082019050818103600083015261351d81612d5c565b9050919050565b6000602082019050818103600083015261353d81612e4e565b9050919050565b6000602082019050818103600083015261355d81612eb4565b9050919050565b6000602082019050818103600083015261357d81612f5a565b9050919050565b6000602082019050818103600083015261359d81613000565b9050919050565b60006020820190506135b960008301846130a6565b92915050565b6000604051905081810181811067ffffffffffffffff821117156135e6576135e5613a1f565b5b8060405250919050565b600067ffffffffffffffff82111561360b5761360a613a1f565b5b601f19601f8301169050602081019050919050565b600067ffffffffffffffff82111561363b5761363a613a1f565b5b601f19601f8301169050602081019050919050565b60008190508160005260206000209050919050565b600081519050919050565b600081519050919050565b600082825260208201905092915050565b600081905092915050565b600082825260208201905092915050565b600081905092915050565b60006136be82613869565b91506136c983613869565b9250827fffffffffffffffffffffffffffffffffffffffffffffffffffffffffffffffff038211156136fe576136fd613992565b5b828201905092915050565b600061371482613873565b915061371f83613873565b92508260ff0382111561373557613734613992565b5b828201905092915050565b600061374b82613869565b915061375683613869565b925082613766576137656139c1565b5b828204905092915050565b600061377c82613869565b915061378783613869565b9250817fffffffffffffffffffffffffffffffffffffffffffffffffffffffffffffffff04831182151516156137c0576137bf613992565b5b828202905092915050565b60006137d682613869565b91506137e183613869565b9250828210156137f4576137f3613992565b5b828203905092915050565b600061380a82613849565b9050919050565b60008115159050919050565b60007fffffffff0000000000000000000000000000000000000000000000000000000082169050919050565b600073ffffffffffffffffffffffffffffffffffffffff82169050919050565b6000819050919050565b600060ff82169050919050565b82818337600083830152505050565b60005b838110156138ad578082015181840152602081019050613892565b838111156138bc576000848401525b50505050565b600060028204905060018216806138da57607f821691505b602082108114156138ee576138ed6139f0565b5b50919050565b60006138ff82613869565b91507fffffffffffffffffffffffffffffffffffffffffffffffffffffffffffffffff82141561393257613931613992565b5b600182019050919050565b60006139488261394f565b9050919050565b600061395a82613a5f565b9050919050565b600061396c82613869565b915061397783613869565b925082613987576139866139c1565b5b828206905092915050565b7f4e487b7100000000000000000000000000000000000000000000000000000000600052601160045260246000fd5b7f4e487b7100000000000000000000000000000000000000000000000000000000600052601260045260246000fd5b7f4e487b7100000000000000000000000000000000000000000000000000000000600052602260045260246000fd5b7f4e487b7100000000000000000000000000000000000000000000000000000000600052604160045260246000fd5b6000601f19601f8301169050919050565b60008160601b9050919050565b613a75816137ff565b8114613a8057600080fd5b50565b613a8c81613811565b8114613a9757600080fd5b50565b613aa38161381d565b8114613aae57600080fd5b50565b613aba81613869565b8114613ac557600080fd5b5056fe416e204e465420772f20494420257320686173206265656e206d696e74656420746f2025734142434445464748494a4b4c4d4e4f505152535455565758595a6162636465666768696a6b6c6d6e6f707172737475767778797a303132333435363738392b2fa264697066735822122073310df2f35193d9a2ec017bfaa5f4f56831244b7a2db3e1bb4743c1028ed2e764736f6c6343000800003322207374796c653d2266696c6c3a7472616e73706172656e743b7374726f6b653a7267622831362c203134342c20323438293b7374726f6b652d77696474683a31222f3e3c73766720786d6c6e733d22687474703a2f2f7777772e77332e6f72672f323030302f73766722207072657365727665417370656374526174696f3d22784d696e594d696e206d656574222076696577426f783d223020302035303020353030223e3c726563742077696474683d223130302522206865696768743d2231303025222066696c6c3d227768697465222f3e3c6c696e652078313d22313030222079313d2230222078323d22313030222079323d2235303022207374726f6b653d2223646464222f3e3c6c696e652078313d22323030222079313d2230222078323d22323030222079323d2235303022207374726f6b653d2223646464222f3e3c6c696e652078313d22333030222079313d2230222078323d22333030222079323d2235303022207374726f6b653d2223646464222f3e3c6c696e652078313d22343030222079313d2230222078323d22343030222079323d2235303022207374726f6b653d2223646464222f3e3c6c696e652078313d2230222079313d22313030222078323d22353030222079323d2231303022207374726f6b653d2223646464222f3e3c6c696e652078313d2230222079313d22323030222078323d22353030222079323d2232303022207374726f6b653d2223646464222f3e3c6c696e652078313d2230222079313d22333030222078323d22353030222079323d2233303022207374726f6b653d2223646464222f3e3c6c696e652078313d2230222079313d22343030222078323d22353030222079323d2234303022207374726f6b653d2223646464222f3e3c706f6c79676f6e20706f696e74733d22",
  "linkReferences": {},
  "deployedLinkReferences": {}
}